{"abi":[{"type":"constructor","inputs":[{"name":"name_","type":"string","internalType":"string"},{"name":"symbol_","type":"string","internalType":"string"},{"name":"admin","type":"address","internalType":"address"}],"stateMutability":"nonpayable"},{"type":"function","name":"DEFAULT_ADMIN_ROLE","inputs":[],"outputs":[{"name":"","type":"bytes32","internalType":"bytes32"}],"stateMutability":"view"},{"type":"function","name":"MINTER_ROLE","inputs":[],"outputs":[{"name":"","type":"bytes32","internalType":"bytes32"}],"stateMutability":"view"},{"type":"function","name":"REENCRYPTOR_ROLE","inputs":[],"outputs":[{"name":"","type":"bytes32","internalType":"bytes32"}],"stateMutability":"view"},{"type":"function","name":"adminUpdateIPFSCID","inputs":[{"name":"tokenId","type":"uint256","internalType":"uint256"},{"name":"newCID","type":"string","internalType":"string"}],"outputs":[],"stateMutability":"nonpayable"},{"type":"function","name":"approve","inputs":[{"name":"to","type":"address","internalType":"address"},{"name":"tokenId","type":"uint256","internalType":"uint256"}],"outputs":[],"stateMutability":"nonpayable"},{"type":"function","name":"balanceOf","inputs":[{"name":"owner","type":"address","internalType":"address"}],"outputs":[{"name":"","type":"uint256","internalType":"uint256"}],"stateMutability":"view"},{"type":"function","name":"getApproved","inputs":[{"name":"tokenId","type":"uint256","internalType":"uint256"}],"outputs":[{"name":"","type":"address","internalType":"address"}],"stateMutability":"view"},{"type":"function","name":"getIPFSCID","inputs":[{"name":"tokenId","type":"uint256","internalType":"uint256"}],"outputs":[{"name":"","type":"string","internalType":"string"}],"stateMutability":"view"},{"type":"function","name":"getKeyVersion","inputs":[{"name":"tokenId","type":"uint256","internalType":"uint256"}],"outputs":[{"name":"","type":"uint256","internalType":"uint256"}],"stateMutability":"view"},{"type":"function","name":"getRoleAdmin","inputs":[{"name":"role","type":"bytes32","internalType":"bytes32"}],"outputs":[{"name":"","type":"bytes32","internalType":"bytes32"}],"stateMutability":"view"},{"type":"function","name":"getWrappedKey","inputs":[{"name":"tokenId","type":"uint256","internalType":"uint256"}],"outputs":[{"name":"","type":"bytes","internalType":"bytes"}],"stateMutability":"view"},{"type":"function","name":"grantMinter","inputs":[{"name":"account","type":"address","internalType":"address"}],"outputs":[],"stateMutability":"nonpayable"},{"type":"function","name":"grantReencryptor","inputs":[{"name":"account","type":"address","internalType":"address"}],"outputs":[],"stateMutability":"nonpayable"},{"type":"function","name":"grantRole","inputs":[{"name":"role","type":"bytes32","internalType":"bytes32"},{"name":"account","type":"address","internalType":"address"}],"outputs":[],"stateMutability":"nonpayable"},{"type":"function","name":"hasRole","inputs":[{"name":"role","type":"bytes32","internalType":"bytes32"},{"name":"account","type":"address","internalType":"address"}],"outputs":[{"name":"","type":"bool","internalType":"bool"}],"stateMutability":"view"},{"type":"function","name":"isApprovedForAll","inputs":[{"name":"owner","type":"address","internalType":"address"},{"name":"operator","type":"address","internalType":"address"}],"outputs":[{"name":"","type":"bool","internalType":"bool"}],"stateMutability":"view"},{"type":"function","name":"mintEncrypted","inputs":[{"name":"to","type":"address","internalType":"address"},{"name":"ipfsCID","type":"string","internalType":"string"},{"name":"wrappedKey","type":"bytes","internalType":"bytes"}],"outputs":[{"name":"","type":"uint256","internalType":"uint256"}],"stateMutability":"nonpayable"},{"type":"function","name":"name","inputs":[],"outputs":[{"name":"","type":"string","internalType":"string"}],"stateMutability":"view"},{"type":"function","name":"ownerOf","inputs":[{"name":"tokenId","type":"uint256","internalType":"uint256"}],"outputs":[{"name":"","type":"address","internalType":"address"}],"stateMutability":"view"},{"type":"function","name":"renounceRole","inputs":[{"name":"role","type":"bytes32","internalType":"bytes32"},{"name":"account","type":"address","internalType":"address"}],"outputs":[],"stateMutability":"nonpayable"},{"type":"function","name":"revokeRole","inputs":[{"name":"role","type":"bytes32","internalType":"bytes32"},{"name":"account","type":"address","internalType":"address"}],"outputs":[],"stateMutability":"nonpayable"},{"type":"function","name":"safeTransferFrom","inputs":[{"name":"from","type":"address","internalType":"address"},{"name":"to","type":"address","internalType":"address"},{"name":"tokenId","type":"uint256","internalType":"uint256"}],"outputs":[],"stateMutability":"nonpayable"},{"type":"function","name":"safeTransferFrom","inputs":[{"name":"from","type":"address","internalType":"address"},{"name":"to","type":"address","internalType":"address"},{"name":"tokenId","type":"uint256","internalType":"uint256"},{"name":"data","type":"bytes","internalType":"bytes"}],"outputs":[],"stateMutability":"nonpayable"},{"type":"function","name":"setApprovalForAll","inputs":[{"name":"operator","type":"address","internalType":"address"},{"name":"approved","type":"bool","internalType":"bool"}],"outputs":[],"stateMutability":"nonpayable"},{"type":"function","name":"supportsInterface","inputs":[{"name":"interfaceId","type":"bytes4","internalType":"bytes4"}],"outputs":[{"name":"","type":"bool","internalType":"bool"}],"stateMutability":"view"},{"type":"function","name":"symbol","inputs":[],"outputs":[{"name":"","type":"string","internalType":"string"}],"stateMutability":"view"},{"type":"function","name":"tokenURI","inputs":[{"name":"tokenId","type":"uint256","internalType":"uint256"}],"outputs":[{"name":"","type":"string","internalType":"string"}],"stateMutability":"view"},{"type":"function","name":"transferFrom","inputs":[{"name":"from","type":"address","internalType":"address"},{"name":"to","type":"address","internalType":"address"},{"name":"tokenId","type":"uint256","internalType":"uint256"}],"outputs":[],"stateMutability":"nonpayable"},{"type":"function","name":"updateWrappedKey","inputs":[{"name":"tokenId","type":"uint256","internalType":"uint256"},{"name":"newWrappedKey","type":"bytes","internalType":"bytes"}],"outputs":[],"stateMutability":"nonpayable"},{"type":"event","name":"Approval","inputs":[{"name":"owner","type":"address","indexed":true,"internalType":"address"},{"name":"approved","type":"address","indexed":true,"internalType":"address"},{"name":"tokenId","type":"uint256","indexed":true,"internalType":"uint256"}],"anonymous":false},{"type":"event","name":"ApprovalForAll","inputs":[{"name":"owner","type":"address","indexed":true,"internalType":"address"},{"name":"operator","type":"address","indexed":true,"internalType":"address"},{"name":"approved","type":"bool","indexed":false,"internalType":"bool"}],"anonymous":false},{"type":"event","name":"KeyReencryptionNeeded","inputs":[{"name":"tokenId","type":"uint256","indexed":true,"internalType":"uint256"},{"name":"from","type":"address","indexed":true,"internalType":"address"},{"name":"to","type":"address","indexed":true,"internalType":"address"},{"name":"nextVersion","type":"uint256","indexed":false,"internalType":"uint256"}],"anonymous":false},{"type":"event","name":"NFTMinted","inputs":[{"name":"tokenId","type":"uint256","indexed":true,"internalType":"uint256"},{"name":"owner","type":"address","indexed":true,"internalType":"address"},{"name":"ipfsCID","type":"string","indexed":false,"internalType":"string"}],"anonymous":false},{"type":"event","name":"RoleAdminChanged","inputs":[{"name":"role","type":"bytes32","indexed":true,"internalType":"bytes32"},{"name":"previousAdminRole","type":"bytes32","indexed":true,"internalType":"bytes32"},{"name":"newAdminRole","type":"bytes32","indexed":true,"internalType":"bytes32"}],"anonymous":false},{"type":"event","name":"RoleGranted","inputs":[{"name":"role","type":"bytes32","indexed":true,"internalType":"bytes32"},{"name":"account","type":"address","indexed":true,"internalType":"address"},{"name":"sender","type":"address","indexed":true,"internalType":"address"}],"anonymous":false},{"type":"event","name":"RoleRevoked","inputs":[{"name":"role","type":"bytes32","indexed":true,"internalType":"bytes32"},{"name":"account","type":"address","indexed":true,"internalType":"address"},{"name":"sender","type":"address","indexed":true,"internalType":"address"}],"anonymous":false},{"type":"event","name":"Transfer","inputs":[{"name":"from","type":"address","indexed":true,"internalType":"address"},{"name":"to","type":"address","indexed":true,"internalType":"address"},{"name":"tokenId","type":"uint256","indexed":true,"internalType":"uint256"}],"anonymous":false},{"type":"event","name":"WrappedKeyUpdated","inputs":[{"name":"tokenId","type":"uint256","indexed":true,"internalType":"uint256"},{"name":"updater","type":"address","indexed":true,"internalType":"address"},{"name":"newVersion","type":"uint256","indexed":false,"internalType":"uint256"}],"anonymous":false}],"bytecode":{"object":"0x608060405234801561000f575f5ffd5b50604051614a3d380380614a3d833981810160405281019061003191906103db565b8282815f90816100419190610673565b5080600190816100519190610673565b5050506100665f5f1b826100ce60201b60201c565b6100967f9f2df0fed2c77648de5860a4cc508cd0818c85b8b8a1ab4ceeef8d981c8956a6826100ce60201b60201c565b6100c67fd360b4396d4ce5a1958801107d3bd782cf285d955c4fc6eb6689d1e0a58486f6826100ce60201b60201c565b505050610742565b6100de82826100e260201b60201c565b5050565b6100f282826101c960201b60201c565b6101c557600160065f8481526020019081526020015f205f015f8373ffffffffffffffffffffffffffffffffffffffff1673ffffffffffffffffffffffffffffffffffffffff1681526020019081526020015f205f6101000a81548160ff02191690831515021790555061016a61022d60201b60201c565b73ffffffffffffffffffffffffffffffffffffffff168173ffffffffffffffffffffffffffffffffffffffff16837f2f8788117e7eff1d82e926ec794901d17c78024a50270940304540a733656f0d60405160405180910390a45b5050565b5f60065f8481526020019081526020015f205f015f8373ffffffffffffffffffffffffffffffffffffffff1673ffffffffffffffffffffffffffffffffffffffff1681526020019081526020015f205f9054906101000a900460ff16905092915050565b5f33905090565b5f604051905090565b5f5ffd5b5f5ffd5b5f5ffd5b5f5ffd5b5f601f19601f8301169050919050565b7f4e487b71000000000000000000000000000000000000000000000000000000005f52604160045260245ffd5b6102938261024d565b810181811067ffffffffffffffff821117156102b2576102b161025d565b5b80604052505050565b5f6102c4610234565b90506102d0828261028a565b919050565b5f67ffffffffffffffff8211156102ef576102ee61025d565b5b6102f88261024d565b9050602081019050919050565b8281835e5f83830152505050565b5f610325610320846102d5565b6102bb565b90508281526020810184848401111561034157610340610249565b5b61034c848285610305565b509392505050565b5f82601f83011261036857610367610245565b5b8151610378848260208601610313565b91505092915050565b5f73ffffffffffffffffffffffffffffffffffffffff82169050919050565b5f6103aa82610381565b9050919050565b6103ba816103a0565b81146103c4575f5ffd5b50565b5f815190506103d5816103b1565b92915050565b5f5f5f606084860312156103f2576103f161023d565b5b5f84015167ffffffffffffffff81111561040f5761040e610241565b5b61041b86828701610354565b935050602084015167ffffffffffffffff81111561043c5761043b610241565b5b61044886828701610354565b9250506040610459868287016103c7565b9150509250925092565b5f81519050919050565b7f4e487b71000000000000000000000000000000000000000000000000000000005f52602260045260245ffd5b5f60028204905060018216806104b157607f821691505b6020821081036104c4576104c361046d565b5b50919050565b5f819050815f5260205f209050919050565b5f6020601f8301049050919050565b5f82821b905092915050565b5f600883026105267fffffffffffffffffffffffffffffffffffffffffffffffffffffffffffffffff826104eb565b61053086836104eb565b95508019841693508086168417925050509392505050565b5f819050919050565b5f819050919050565b5f61057461056f61056a84610548565b610551565b610548565b9050919050565b5f819050919050565b61058d8361055a565b6105a16105998261057b565b8484546104f7565b825550505050565b5f5f905090565b6105b86105a9565b6105c3818484610584565b505050565b5b818110156105e6576105db5f826105b0565b6001810190506105c9565b5050565b601f82111561062b576105fc816104ca565b610605846104dc565b81016020851015610614578190505b610628610620856104dc565b8301826105c8565b50505b505050565b5f82821c905092915050565b5f61064b5f1984600802610630565b1980831691505092915050565b5f610663838361063c565b9150826002028217905092915050565b61067c82610463565b67ffffffffffffffff8111156106955761069461025d565b5b61069f825461049a565b6106aa8282856105ea565b5f60209050601f8311600181146106db575f84156106c9578287015190505b6106d38582610658565b86555061073a565b601f1984166106e9866104ca565b5f5b82811015610710578489015182556001820191506020850194506020810190506106eb565b8683101561072d5784890151610729601f89168261063c565b8355505b6001600288020188555050505b505050505050565b6142ee8061074f5f395ff3fe608060405234801561000f575f5ffd5b50600436106101cd575f3560e01c806391d1485411610102578063c87b56dd116100a0578063df98116c1161006f578063df98116c1461054b578063e985e9c51461057b578063f94dd568146105ab578063fe7992c2146105c7576101cd565b8063c87b56dd146104c3578063c919bc00146104f3578063d539139314610511578063d547741f1461052f576101cd565b8063a22cb465116100dc578063a22cb4651461042b578063a265690c14610447578063b88d4fde14610477578063bec3346b14610493576101cd565b806391d14854146103bf57806395d89b41146103ef578063a217fddf1461040d576101cd565b80632f2ff15d1161016f57806342842e0e1161014957806342842e0e146103275780636352211e1461034357806370a082311461037357806370f6aeb7146103a3576101cd565b80632f2ff15d146102d35780633516eec4146102ef57806336568abe1461030b576101cd565b8063095ea7b3116101ab578063095ea7b31461024f57806323b872dd1461026b578063248a9ca314610287578063261707fa146102b7576101cd565b806301ffc9a7146101d157806306fdde0314610201578063081812fc1461021f575b5f5ffd5b6101eb60048036038101906101e69190612a52565b6105f7565b6040516101f89190612a97565b60405180910390f35b610209610608565b6040516102169190612b20565b60405180910390f35b61023960048036038101906102349190612b73565b610697565b6040516102469190612bdd565b60405180910390f35b61026960048036038101906102649190612c20565b6106d9565b005b61028560048036038101906102809190612c5e565b6107ef565b005b6102a1600480360381019061029c9190612ce1565b61084f565b6040516102ae9190612d1b565b60405180910390f35b6102d160048036038101906102cc9190612d34565b61086c565b005b6102ed60048036038101906102e89190612d5f565b6108cc565b005b61030960048036038101906103049190612dfe565b6108ed565b005b61032560048036038101906103209190612d5f565b6109fc565b005b610341600480360381019061033c9190612c5e565b610a7f565b005b61035d60048036038101906103589190612b73565b610a9e565b60405161036a9190612bdd565b60405180910390f35b61038d60048036038101906103889190612d34565b610b22565b60405161039a9190612e6a565b60405180910390f35b6103bd60048036038101906103b89190612d34565b610bd6565b005b6103d960048036038101906103d49190612d5f565b610c36565b6040516103e69190612a97565b60405180910390f35b6103f7610c9a565b6040516104049190612b20565b60405180910390f35b610415610d2a565b6040516104229190612d1b565b60405180910390f35b61044560048036038101906104409190612ead565b610d30565b005b610461600480360381019061045c9190612b73565b610d46565b60405161046e9190612b20565b60405180910390f35b610491600480360381019061048c9190613013565b610e88565b005b6104ad60048036038101906104a891906130e8565b610eea565b6040516104ba9190612e6a565b60405180910390f35b6104dd60048036038101906104d89190612b73565b61107f565b6040516104ea9190612b20565b60405180910390f35b6104fb6110e4565b6040516105089190612d1b565b60405180910390f35b610519611108565b6040516105269190612d1b565b60405180910390f35b61054960048036038101906105449190612d5f565b61112c565b005b61056560048036038101906105609190612b73565b61114d565b6040516105729190612e6a565b60405180910390f35b61059560048036038101906105909190613179565b6111b2565b6040516105a29190612a97565b60405180910390f35b6105c560048036038101906105c091906131b7565b611240565b005b6105e160048036038101906105dc9190612b73565b6112bd565b6040516105ee9190613266565b60405180910390f35b5f61060182611400565b9050919050565b60605f8054610616906132b3565b80601f0160208091040260200160405190810160405280929190818152602001828054610642906132b3565b801561068d5780601f106106645761010080835404028352916020019161068d565b820191905f5260205f20905b81548152906001019060200180831161067057829003601f168201915b5050505050905090565b5f6106a182611479565b60045f8381526020019081526020015f205f9054906101000a900473ffffffffffffffffffffffffffffffffffffffff169050919050565b5f6106e382610a9e565b90508073ffffffffffffffffffffffffffffffffffffffff168373ffffffffffffffffffffffffffffffffffffffff1603610753576040517f08c379a000000000000000000000000000000000000000000000000000000000815260040161074a90613353565b60405180910390fd5b8073ffffffffffffffffffffffffffffffffffffffff166107726114c4565b73ffffffffffffffffffffffffffffffffffffffff1614806107a157506107a08161079b6114c4565b6111b2565b5b6107e0576040517f08c379a00000000000000000000000000000000000000000000000000000000081526004016107d7906133e1565b60405180910390fd5b6107ea83836114cb565b505050565b6108006107fa6114c4565b82611581565b61083f576040517f08c379a00000000000000000000000000000000000000000000000000000000081526004016108369061346f565b60405180910390fd5b61084a838383611615565b505050565b5f60065f8381526020019081526020015f20600101549050919050565b6108957f9f2df0fed2c77648de5860a4cc508cd0818c85b8b8a1ab4ceeef8d981c8956a661084f565b61089e81611901565b6108c87f9f2df0fed2c77648de5860a4cc508cd0818c85b8b8a1ab4ceeef8d981c8956a6836108cc565b5050565b6108d58261084f565b6108de81611901565b6108e88383611915565b505050565b7fd360b4396d4ce5a1958801107d3bd782cf285d955c4fc6eb6689d1e0a58486f661091781611901565b610920846119f0565b61095f576040517f08c379a0000000000000000000000000000000000000000000000000000000008152600401610956906134d7565b60405180910390fd5b5f60085f8681526020019081526020015f209050838382600101918261098692919061369f565b506001816002015f82825461099b9190613799565b925050819055503373ffffffffffffffffffffffffffffffffffffffff16857f7ef238867d0ea002b8eea76b661447a01001baf8ba25c68cb6685d05417ea62983600201546040516109ed9190612e6a565b60405180910390a35050505050565b610a046114c4565b73ffffffffffffffffffffffffffffffffffffffff168173ffffffffffffffffffffffffffffffffffffffff1614610a71576040517f08c379a0000000000000000000000000000000000000000000000000000000008152600401610a689061383c565b60405180910390fd5b610a7b8282611a30565b5050565b610a9983838360405180602001604052805f815250610e88565b505050565b5f5f610aa983611b0b565b90505f73ffffffffffffffffffffffffffffffffffffffff168173ffffffffffffffffffffffffffffffffffffffff1603610b19576040517f08c379a0000000000000000000000000000000000000000000000000000000008152600401610b10906138a4565b60405180910390fd5b80915050919050565b5f5f73ffffffffffffffffffffffffffffffffffffffff168273ffffffffffffffffffffffffffffffffffffffff1603610b91576040517f08c379a0000000000000000000000000000000000000000000000000000000008152600401610b8890613932565b60405180910390fd5b60035f8373ffffffffffffffffffffffffffffffffffffffff1673ffffffffffffffffffffffffffffffffffffffff1681526020019081526020015f20549050919050565b610bff7fd360b4396d4ce5a1958801107d3bd782cf285d955c4fc6eb6689d1e0a58486f661084f565b610c0881611901565b610c327fd360b4396d4ce5a1958801107d3bd782cf285d955c4fc6eb6689d1e0a58486f6836108cc565b5050565b5f60065f8481526020019081526020015f205f015f8373ffffffffffffffffffffffffffffffffffffffff1673ffffffffffffffffffffffffffffffffffffffff1681526020019081526020015f205f9054906101000a900460ff16905092915050565b606060018054610ca9906132b3565b80601f0160208091040260200160405190810160405280929190818152602001828054610cd5906132b3565b8015610d205780601f10610cf757610100808354040283529160200191610d20565b820191905f5260205f20905b815481529060010190602001808311610d0357829003601f168201915b5050505050905090565b5f5f1b81565b610d42610d3b6114c4565b8383611b44565b5050565b6060610d51826119f0565b610d90576040517f08c379a0000000000000000000000000000000000000000000000000000000008152600401610d87906134d7565b60405180910390fd5b5f610d9a83610a9e565b9050610da7813385611cab565b610de6576040517f08c379a0000000000000000000000000000000000000000000000000000000008152600401610ddd906139c0565b60405180910390fd5b60085f8481526020019081526020015f205f018054610e04906132b3565b80601f0160208091040260200160405190810160405280929190818152602001828054610e30906132b3565b8015610e7b5780601f10610e5257610100808354040283529160200191610e7b565b820191905f5260205f20905b815481529060010190602001808311610e5e57829003601f168201915b5050505050915050919050565b610e99610e936114c4565b83611581565b610ed8576040517f08c379a0000000000000000000000000000000000000000000000000000000008152600401610ecf9061346f565b60405180910390fd5b610ee484848484611d33565b50505050565b5f7f9f2df0fed2c77648de5860a4cc508cd0818c85b8b8a1ab4ceeef8d981c8956a6610f1581611901565b610f1f6007611d8f565b5f610f2a6007611da3565b9050610f368882611daf565b604051806060016040528088888080601f0160208091040260200160405190810160405280939291908181526020018383808284375f81840152601f19601f82011690508083019250505050505050815260200186868080601f0160208091040260200160405190810160405280939291908181526020018383808284375f81840152601f19601f820116905080830192505050505050508152602001600181525060085f8381526020019081526020015f205f820151815f019081610ffc9190613a36565b5060208201518160010190816110129190613b05565b50604082015181600201559050508773ffffffffffffffffffffffffffffffffffffffff16817f06becd955c918828f6e985541acbf49cc842c9e9bd569fffc7698e721ef135758989604051611069929190613c00565b60405180910390a3809250505095945050505050565b606061108a82611479565b5f611093611dcc565b90505f8151116110b15760405180602001604052805f8152506110dc565b806110bb84611de2565b6040516020016110cc929190613c5c565b6040516020818303038152906040525b915050919050565b7fd360b4396d4ce5a1958801107d3bd782cf285d955c4fc6eb6689d1e0a58486f681565b7f9f2df0fed2c77648de5860a4cc508cd0818c85b8b8a1ab4ceeef8d981c8956a681565b6111358261084f565b61113e81611901565b6111488383611a30565b505050565b5f611157826119f0565b611196576040517f08c379a000000000000000000000000000000000000000000000000000000000815260040161118d906134d7565b60405180910390fd5b60085f8381526020019081526020015f20600201549050919050565b5f60055f8473ffffffffffffffffffffffffffffffffffffffff1673ffffffffffffffffffffffffffffffffffffffff1681526020019081526020015f205f8373ffffffffffffffffffffffffffffffffffffffff1673ffffffffffffffffffffffffffffffffffffffff1681526020019081526020015f205f9054906101000a900460ff16905092915050565b5f5f1b61124c81611901565b611255846119f0565b611294576040517f08c379a000000000000000000000000000000000000000000000000000000000815260040161128b906134d7565b60405180910390fd5b828260085f8781526020019081526020015f205f0191826112b6929190613c89565b5050505050565b60606112c8826119f0565b611307576040517f08c379a00000000000000000000000000000000000000000000000000000000081526004016112fe906134d7565b60405180910390fd5b5f61131183610a9e565b905061131e813385611cab565b61135d576040517f08c379a0000000000000000000000000000000000000000000000000000000008152600401611354906139c0565b60405180910390fd5b60085f8481526020019081526020015f20600101805461137c906132b3565b80601f01602080910402602001604051908101604052809291908181526020018280546113a8906132b3565b80156113f35780601f106113ca576101008083540402835291602001916113f3565b820191905f5260205f20905b8154815290600101906020018083116113d657829003601f168201915b5050505050915050919050565b5f7f7965db0b000000000000000000000000000000000000000000000000000000007bffffffffffffffffffffffffffffffffffffffffffffffffffffffff1916827bffffffffffffffffffffffffffffffffffffffffffffffffffffffff19161480611472575061147182611eac565b5b9050919050565b611482816119f0565b6114c1576040517f08c379a00000000000000000000000000000000000000000000000000000000081526004016114b8906138a4565b60405180910390fd5b50565b5f33905090565b8160045f8381526020019081526020015f205f6101000a81548173ffffffffffffffffffffffffffffffffffffffff021916908373ffffffffffffffffffffffffffffffffffffffff160217905550808273ffffffffffffffffffffffffffffffffffffffff1661153b83610a9e565b73ffffffffffffffffffffffffffffffffffffffff167f8c5be1e5ebec7d5bd14f71427d1e84f3dd0314c0f7b2291e5b200ac8c7c3b92560405160405180910390a45050565b5f5f61158c83610a9e565b90508073ffffffffffffffffffffffffffffffffffffffff168473ffffffffffffffffffffffffffffffffffffffff1614806115ce57506115cd81856111b2565b5b8061160c57508373ffffffffffffffffffffffffffffffffffffffff166115f484610697565b73ffffffffffffffffffffffffffffffffffffffff16145b91505092915050565b8273ffffffffffffffffffffffffffffffffffffffff1661163582610a9e565b73ffffffffffffffffffffffffffffffffffffffff161461168b576040517f08c379a000000000000000000000000000000000000000000000000000000000815260040161168290613dc6565b60405180910390fd5b5f73ffffffffffffffffffffffffffffffffffffffff168273ffffffffffffffffffffffffffffffffffffffff16036116f9576040517f08c379a00000000000000000000000000000000000000000000000000000000081526004016116f090613e54565b60405180910390fd5b6117068383836001611f8d565b8273ffffffffffffffffffffffffffffffffffffffff1661172682610a9e565b73ffffffffffffffffffffffffffffffffffffffff161461177c576040517f08c379a000000000000000000000000000000000000000000000000000000000815260040161177390613dc6565b60405180910390fd5b60045f8281526020019081526020015f205f6101000a81549073ffffffffffffffffffffffffffffffffffffffff0219169055600160035f8573ffffffffffffffffffffffffffffffffffffffff1673ffffffffffffffffffffffffffffffffffffffff1681526020019081526020015f205f8282540392505081905550600160035f8473ffffffffffffffffffffffffffffffffffffffff1673ffffffffffffffffffffffffffffffffffffffff1681526020019081526020015f205f82825401925050819055508160025f8381526020019081526020015f205f6101000a81548173ffffffffffffffffffffffffffffffffffffffff021916908373ffffffffffffffffffffffffffffffffffffffff160217905550808273ffffffffffffffffffffffffffffffffffffffff168473ffffffffffffffffffffffffffffffffffffffff167fddf252ad1be2c89b69c2b068fc378daa952ba7f163c4a11628f55a4df523b3ef60405160405180910390a46118fc83838360016120d7565b505050565b6119128161190d6114c4565b6120dd565b50565b61191f8282610c36565b6119ec57600160065f8481526020019081526020015f205f015f8373ffffffffffffffffffffffffffffffffffffffff1673ffffffffffffffffffffffffffffffffffffffff1681526020019081526020015f205f6101000a81548160ff0219169083151502179055506119916114c4565b73ffffffffffffffffffffffffffffffffffffffff168173ffffffffffffffffffffffffffffffffffffffff16837f2f8788117e7eff1d82e926ec794901d17c78024a50270940304540a733656f0d60405160405180910390a45b5050565b5f5f73ffffffffffffffffffffffffffffffffffffffff16611a1183611b0b565b73ffffffffffffffffffffffffffffffffffffffff1614159050919050565b611a3a8282610c36565b15611b07575f60065f8481526020019081526020015f205f015f8373ffffffffffffffffffffffffffffffffffffffff1673ffffffffffffffffffffffffffffffffffffffff1681526020019081526020015f205f6101000a81548160ff021916908315150217905550611aac6114c4565b73ffffffffffffffffffffffffffffffffffffffff168173ffffffffffffffffffffffffffffffffffffffff16837ff6391f5c32d9c69d2a47ea670b442974b53935d1edc7fd64eb21e047a839171b60405160405180910390a45b5050565b5f60025f8381526020019081526020015f205f9054906101000a900473ffffffffffffffffffffffffffffffffffffffff169050919050565b8173ffffffffffffffffffffffffffffffffffffffff168373ffffffffffffffffffffffffffffffffffffffff1603611bb2576040517f08c379a0000000000000000000000000000000000000000000000000000000008152600401611ba990613ebc565b60405180910390fd5b8060055f8573ffffffffffffffffffffffffffffffffffffffff1673ffffffffffffffffffffffffffffffffffffffff1681526020019081526020015f205f8473ffffffffffffffffffffffffffffffffffffffff1673ffffffffffffffffffffffffffffffffffffffff1681526020019081526020015f205f6101000a81548160ff0219169083151502179055508173ffffffffffffffffffffffffffffffffffffffff168373ffffffffffffffffffffffffffffffffffffffff167f17307eab39ab6107e8899845ad3d59bd9653f200f220920489ca2b5937696c3183604051611c9e9190612a97565b60405180910390a3505050565b5f8373ffffffffffffffffffffffffffffffffffffffff168373ffffffffffffffffffffffffffffffffffffffff161480611d1957508273ffffffffffffffffffffffffffffffffffffffff16611d0183610697565b73ffffffffffffffffffffffffffffffffffffffff16145b80611d2a5750611d2984846111b2565b5b90509392505050565b611d3e848484611615565b611d4a84848484612161565b611d89576040517f08c379a0000000000000000000000000000000000000000000000000000000008152600401611d8090613f4a565b60405180910390fd5b50505050565b6001815f015f828254019250508190555050565b5f815f01549050919050565b611dc8828260405180602001604052805f8152506122e3565b5050565b606060405180602001604052805f815250905090565b60605f6001611df08461233d565b0190505f8167ffffffffffffffff811115611e0e57611e0d612eef565b5b6040519080825280601f01601f191660200182016040528015611e405781602001600182028036833780820191505090505b5090505f82602001820190505b600115611ea1578080600190039150507f3031323334353637383961626364656600000000000000000000000000000000600a86061a8153600a8581611e9657611e95613f68565b5b0494505f8503611e4d575b819350505050919050565b5f7f80ac58cd000000000000000000000000000000000000000000000000000000007bffffffffffffffffffffffffffffffffffffffffffffffffffffffff1916827bffffffffffffffffffffffffffffffffffffffffffffffffffffffff19161480611f7657507f5b5e139f000000000000000000000000000000000000000000000000000000007bffffffffffffffffffffffffffffffffffffffffffffffffffffffff1916827bffffffffffffffffffffffffffffffffffffffffffffffffffffffff1916145b80611f865750611f858261248e565b5b9050919050565b611f9a84848460016124f7565b5f73ffffffffffffffffffffffffffffffffffffffff168473ffffffffffffffffffffffffffffffffffffffff161415801561200257505f73ffffffffffffffffffffffffffffffffffffffff168373ffffffffffffffffffffffffffffffffffffffff1614155b156120d15760085f8381526020019081526020015f206001015f6120269190612994565b600160085f8481526020019081526020015f206002015f82825461204a9190613799565b925050819055505f60085f8481526020019081526020015f206002015490508373ffffffffffffffffffffffffffffffffffffffff168573ffffffffffffffffffffffffffffffffffffffff16847f97b6b66b1748b0a512ccbb87826b5234c46ee870833ad34a8e006ec3df6c5c01846040516120c79190612e6a565b60405180910390a4505b50505050565b50505050565b6120e78282610c36565b61215d576120f4816124fd565b612101835f1c602061252a565b604051602001612112929190614029565b6040516020818303038152906040526040517f08c379a00000000000000000000000000000000000000000000000000000000081526004016121549190612b20565b60405180910390fd5b5050565b5f6121818473ffffffffffffffffffffffffffffffffffffffff1661275f565b156122d6578373ffffffffffffffffffffffffffffffffffffffff1663150b7a026121aa6114c4565b8786866040518563ffffffff1660e01b81526004016121cc9493929190614062565b6020604051808303815f875af192505050801561220757506040513d601f19601f8201168201806040525081019061220491906140c0565b60015b612286573d805f8114612235576040519150601f19603f3d011682016040523d82523d5f602084013e61223a565b606091505b505f81510361227e576040517f08c379a000000000000000000000000000000000000000000000000000000000815260040161227590613f4a565b60405180910390fd5b805181602001fd5b63150b7a0260e01b7bffffffffffffffffffffffffffffffffffffffffffffffffffffffff1916817bffffffffffffffffffffffffffffffffffffffffffffffffffffffff1916149150506122db565b600190505b949350505050565b6122ed8383612781565b6122f95f848484612161565b612338576040517f08c379a000000000000000000000000000000000000000000000000000000000815260040161232f90613f4a565b60405180910390fd5b505050565b5f5f5f90507a184f03e93ff9f4daa797ed6e38ed64bf6a1f0100000000000000008310612399577a184f03e93ff9f4daa797ed6e38ed64bf6a1f010000000000000000838161238f5761238e613f68565b5b0492506040810190505b6d04ee2d6d415b85acef810000000083106123d6576d04ee2d6d415b85acef810000000083816123cc576123cb613f68565b5b0492506020810190505b662386f26fc10000831061240557662386f26fc1000083816123fb576123fa613f68565b5b0492506010810190505b6305f5e100831061242e576305f5e100838161242457612423613f68565b5b0492506008810190505b612710831061245357612710838161244957612448613f68565b5b0492506004810190505b60648310612476576064838161246c5761246b613f68565b5b0492506002810190505b600a8310612485576001810190505b80915050919050565b5f7f01ffc9a7000000000000000000000000000000000000000000000000000000007bffffffffffffffffffffffffffffffffffffffffffffffffffffffff1916827bffffffffffffffffffffffffffffffffffffffffffffffffffffffff1916149050919050565b50505050565b60606125238273ffffffffffffffffffffffffffffffffffffffff16601460ff1661252a565b9050919050565b60605f600283600261253c91906140eb565b6125469190613799565b67ffffffffffffffff81111561255f5761255e612eef565b5b6040519080825280601f01601f1916602001820160405280156125915781602001600182028036833780820191505090505b5090507f3000000000000000000000000000000000000000000000000000000000000000815f815181106125c8576125c761412c565b5b60200101907effffffffffffffffffffffffffffffffffffffffffffffffffffffffffffff191690815f1a9053507f78000000000000000000000000000000000000000000000000000000000000008160018151811061262b5761262a61412c565b5b60200101907effffffffffffffffffffffffffffffffffffffffffffffffffffffffffffff191690815f1a9053505f600184600261266991906140eb565b6126739190613799565b90505b6001811115612712577f3031323334353637383961626364656600000000000000000000000000000000600f8616601081106126b5576126b461412c565b5b1a60f81b8282815181106126cc576126cb61412c565b5b60200101907effffffffffffffffffffffffffffffffffffffffffffffffffffffffffffff191690815f1a905350600485901c94508061270b90614159565b9050612676565b505f8414612755576040517f08c379a000000000000000000000000000000000000000000000000000000000815260040161274c906141ca565b60405180910390fd5b8091505092915050565b5f5f8273ffffffffffffffffffffffffffffffffffffffff163b119050919050565b5f73ffffffffffffffffffffffffffffffffffffffff168273ffffffffffffffffffffffffffffffffffffffff16036127ef576040517f08c379a00000000000000000000000000000000000000000000000000000000081526004016127e690614232565b60405180910390fd5b6127f8816119f0565b15612838576040517f08c379a000000000000000000000000000000000000000000000000000000000815260040161282f9061429a565b60405180910390fd5b6128455f83836001611f8d565b61284e816119f0565b1561288e576040517f08c379a00000000000000000000000000000000000000000000000000000000081526004016128859061429a565b60405180910390fd5b600160035f8473ffffffffffffffffffffffffffffffffffffffff1673ffffffffffffffffffffffffffffffffffffffff1681526020019081526020015f205f82825401925050819055508160025f8381526020019081526020015f205f6101000a81548173ffffffffffffffffffffffffffffffffffffffff021916908373ffffffffffffffffffffffffffffffffffffffff160217905550808273ffffffffffffffffffffffffffffffffffffffff165f73ffffffffffffffffffffffffffffffffffffffff167fddf252ad1be2c89b69c2b068fc378daa952ba7f163c4a11628f55a4df523b3ef60405160405180910390a46129905f838360016120d7565b5050565b5080546129a0906132b3565b5f825580601f106129b157506129ce565b601f0160209004905f5260205f20908101906129cd91906129d1565b5b50565b5b808211156129e8575f815f9055506001016129d2565b5090565b5f604051905090565b5f5ffd5b5f5ffd5b5f7fffffffff0000000000000000000000000000000000000000000000000000000082169050919050565b612a31816129fd565b8114612a3b575f5ffd5b50565b5f81359050612a4c81612a28565b92915050565b5f60208284031215612a6757612a666129f5565b5b5f612a7484828501612a3e565b91505092915050565b5f8115159050919050565b612a9181612a7d565b82525050565b5f602082019050612aaa5f830184612a88565b92915050565b5f81519050919050565b5f82825260208201905092915050565b8281835e5f83830152505050565b5f601f19601f8301169050919050565b5f612af282612ab0565b612afc8185612aba565b9350612b0c818560208601612aca565b612b1581612ad8565b840191505092915050565b5f6020820190508181035f830152612b388184612ae8565b905092915050565b5f819050919050565b612b5281612b40565b8114612b5c575f5ffd5b50565b5f81359050612b6d81612b49565b92915050565b5f60208284031215612b8857612b876129f5565b5b5f612b9584828501612b5f565b91505092915050565b5f73ffffffffffffffffffffffffffffffffffffffff82169050919050565b5f612bc782612b9e565b9050919050565b612bd781612bbd565b82525050565b5f602082019050612bf05f830184612bce565b92915050565b612bff81612bbd565b8114612c09575f5ffd5b50565b5f81359050612c1a81612bf6565b92915050565b5f5f60408385031215612c3657612c356129f5565b5b5f612c4385828601612c0c565b9250506020612c5485828601612b5f565b9150509250929050565b5f5f5f60608486031215612c7557612c746129f5565b5b5f612c8286828701612c0c565b9350506020612c9386828701612c0c565b9250506040612ca486828701612b5f565b9150509250925092565b5f819050919050565b612cc081612cae565b8114612cca575f5ffd5b50565b5f81359050612cdb81612cb7565b92915050565b5f60208284031215612cf657612cf56129f5565b5b5f612d0384828501612ccd565b91505092915050565b612d1581612cae565b82525050565b5f602082019050612d2e5f830184612d0c565b92915050565b5f60208284031215612d4957612d486129f5565b5b5f612d5684828501612c0c565b91505092915050565b5f5f60408385031215612d7557612d746129f5565b5b5f612d8285828601612ccd565b9250506020612d9385828601612c0c565b9150509250929050565b5f5ffd5b5f5ffd5b5f5ffd5b5f5f83601f840112612dbe57612dbd612d9d565b5b8235905067ffffffffffffffff811115612ddb57612dda612da1565b5b602083019150836001820283011115612df757612df6612da5565b5b9250929050565b5f5f5f60408486031215612e1557612e146129f5565b5b5f612e2286828701612b5f565b935050602084013567ffffffffffffffff811115612e4357612e426129f9565b5b612e4f86828701612da9565b92509250509250925092565b612e6481612b40565b82525050565b5f602082019050612e7d5f830184612e5b565b92915050565b612e8c81612a7d565b8114612e96575f5ffd5b50565b5f81359050612ea781612e83565b92915050565b5f5f60408385031215612ec357612ec26129f5565b5b5f612ed085828601612c0c565b9250506020612ee185828601612e99565b9150509250929050565b5f5ffd5b7f4e487b71000000000000000000000000000000000000000000000000000000005f52604160045260245ffd5b612f2582612ad8565b810181811067ffffffffffffffff82111715612f4457612f43612eef565b5b80604052505050565b5f612f566129ec565b9050612f628282612f1c565b919050565b5f67ffffffffffffffff821115612f8157612f80612eef565b5b612f8a82612ad8565b9050602081019050919050565b828183375f83830152505050565b5f612fb7612fb284612f67565b612f4d565b905082815260208101848484011115612fd357612fd2612eeb565b5b612fde848285612f97565b509392505050565b5f82601f830112612ffa57612ff9612d9d565b5b813561300a848260208601612fa5565b91505092915050565b5f5f5f5f6080858703121561302b5761302a6129f5565b5b5f61303887828801612c0c565b945050602061304987828801612c0c565b935050604061305a87828801612b5f565b925050606085013567ffffffffffffffff81111561307b5761307a6129f9565b5b61308787828801612fe6565b91505092959194509250565b5f5f83601f8401126130a8576130a7612d9d565b5b8235905067ffffffffffffffff8111156130c5576130c4612da1565b5b6020830191508360018202830111156130e1576130e0612da5565b5b9250929050565b5f5f5f5f5f60608688031215613101576131006129f5565b5b5f61310e88828901612c0c565b955050602086013567ffffffffffffffff81111561312f5761312e6129f9565b5b61313b88828901613093565b9450945050604086013567ffffffffffffffff81111561315e5761315d6129f9565b5b61316a88828901612da9565b92509250509295509295909350565b5f5f6040838503121561318f5761318e6129f5565b5b5f61319c85828601612c0c565b92505060206131ad85828601612c0c565b9150509250929050565b5f5f5f604084860312156131ce576131cd6129f5565b5b5f6131db86828701612b5f565b935050602084013567ffffffffffffffff8111156131fc576131fb6129f9565b5b61320886828701613093565b92509250509250925092565b5f81519050919050565b5f82825260208201905092915050565b5f61323882613214565b613242818561321e565b9350613252818560208601612aca565b61325b81612ad8565b840191505092915050565b5f6020820190508181035f83015261327e818461322e565b905092915050565b7f4e487b71000000000000000000000000000000000000000000000000000000005f52602260045260245ffd5b5f60028204905060018216806132ca57607f821691505b6020821081036132dd576132dc613286565b5b50919050565b7f4552433732313a20617070726f76616c20746f2063757272656e74206f776e655f8201527f7200000000000000000000000000000000000000000000000000000000000000602082015250565b5f61333d602183612aba565b9150613348826132e3565b604082019050919050565b5f6020820190508181035f83015261336a81613331565b9050919050565b7f4552433732313a20617070726f76652063616c6c6572206973206e6f7420746f5f8201527f6b656e206f776e6572206f7220617070726f76656420666f7220616c6c000000602082015250565b5f6133cb603d83612aba565b91506133d682613371565b604082019050919050565b5f6020820190508181035f8301526133f8816133bf565b9050919050565b7f4552433732313a2063616c6c6572206973206e6f7420746f6b656e206f776e655f8201527f72206f7220617070726f76656400000000000000000000000000000000000000602082015250565b5f613459602d83612aba565b9150613464826133ff565b604082019050919050565b5f6020820190508181035f8301526134868161344d565b9050919050565b7f456e637279707465644e46543a206e6f6e6578697374656e7420746f6b656e005f82015250565b5f6134c1601f83612aba565b91506134cc8261348d565b602082019050919050565b5f6020820190508181035f8301526134ee816134b5565b9050919050565b5f82905092915050565b5f819050815f5260205f209050919050565b5f6020601f8301049050919050565b5f82821b905092915050565b5f6008830261355b7fffffffffffffffffffffffffffffffffffffffffffffffffffffffffffffffff82613520565b6135658683613520565b95508019841693508086168417925050509392505050565b5f819050919050565b5f6135a061359b61359684612b40565b61357d565b612b40565b9050919050565b5f819050919050565b6135b983613586565b6135cd6135c5826135a7565b84845461352c565b825550505050565b5f5f905090565b6135e46135d5565b6135ef8184846135b0565b505050565b5b81811015613612576136075f826135dc565b6001810190506135f5565b5050565b601f82111561365757613628816134ff565b61363184613511565b81016020851015613640578190505b61365461364c85613511565b8301826135f4565b50505b505050565b5f82821c905092915050565b5f6136775f198460080261365c565b1980831691505092915050565b5f61368f8383613668565b9150826002028217905092915050565b6136a983836134f5565b67ffffffffffffffff8111156136c2576136c1612eef565b5b6136cc82546132b3565b6136d7828285613616565b5f601f831160018114613704575f84156136f2578287013590505b6136fc8582613684565b865550613763565b601f198416613712866134ff565b5f5b8281101561373957848901358255600182019150602085019450602081019050613714565b868310156137565784890135613752601f891682613668565b8355505b6001600288020188555050505b50505050505050565b7f4e487b71000000000000000000000000000000000000000000000000000000005f52601160045260245ffd5b5f6137a382612b40565b91506137ae83612b40565b92508282019050808211156137c6576137c561376c565b5b92915050565b7f416363657373436f6e74726f6c3a2063616e206f6e6c792072656e6f756e63655f8201527f20726f6c657320666f722073656c660000000000000000000000000000000000602082015250565b5f613826602f83612aba565b9150613831826137cc565b604082019050919050565b5f6020820190508181035f8301526138538161381a565b9050919050565b7f4552433732313a20696e76616c696420746f6b656e20494400000000000000005f82015250565b5f61388e601883612aba565b91506138998261385a565b602082019050919050565b5f6020820190508181035f8301526138bb81613882565b9050919050565b7f4552433732313a2061646472657373207a65726f206973206e6f7420612076615f8201527f6c6964206f776e65720000000000000000000000000000000000000000000000602082015250565b5f61391c602983612aba565b9150613927826138c2565b604082019050919050565b5f6020820190508181035f83015261394981613910565b9050919050565b7f456e637279707465644e46543a2063616c6c6572206e6f74206f776e6572206e5f8201527f6f7220617070726f766564000000000000000000000000000000000000000000602082015250565b5f6139aa602b83612aba565b91506139b582613950565b604082019050919050565b5f6020820190508181035f8301526139d78161399e565b9050919050565b5f819050815f5260205f209050919050565b601f821115613a3157613a02816139de565b613a0b84613511565b81016020851015613a1a578190505b613a2e613a2685613511565b8301826135f4565b50505b505050565b613a3f82612ab0565b67ffffffffffffffff811115613a5857613a57612eef565b5b613a6282546132b3565b613a6d8282856139f0565b5f60209050601f831160018114613a9e575f8415613a8c578287015190505b613a968582613684565b865550613afd565b601f198416613aac866139de565b5f5b82811015613ad357848901518255600182019150602085019450602081019050613aae565b86831015613af05784890151613aec601f891682613668565b8355505b6001600288020188555050505b505050505050565b613b0e82613214565b67ffffffffffffffff811115613b2757613b26612eef565b5b613b3182546132b3565b613b3c828285613616565b5f60209050601f831160018114613b6d575f8415613b5b578287015190505b613b658582613684565b865550613bcc565b601f198416613b7b866134ff565b5f5b82811015613ba257848901518255600182019150602085019450602081019050613b7d565b86831015613bbf5784890151613bbb601f891682613668565b8355505b6001600288020188555050505b505050505050565b5f613bdf8385612aba565b9350613bec838584612f97565b613bf583612ad8565b840190509392505050565b5f6020820190508181035f830152613c19818486613bd4565b90509392505050565b5f81905092915050565b5f613c3682612ab0565b613c408185613c22565b9350613c50818560208601612aca565b80840191505092915050565b5f613c678285613c2c565b9150613c738284613c2c565b91508190509392505050565b5f82905092915050565b613c938383613c7f565b67ffffffffffffffff811115613cac57613cab612eef565b5b613cb682546132b3565b613cc18282856139f0565b5f601f831160018114613cee575f8415613cdc578287013590505b613ce68582613684565b865550613d4d565b601f198416613cfc866139de565b5f5b82811015613d2357848901358255600182019150602085019450602081019050613cfe565b86831015613d405784890135613d3c601f891682613668565b8355505b6001600288020188555050505b50505050505050565b7f4552433732313a207472616e736665722066726f6d20696e636f7272656374205f8201527f6f776e6572000000000000000000000000000000000000000000000000000000602082015250565b5f613db0602583612aba565b9150613dbb82613d56565b604082019050919050565b5f6020820190508181035f830152613ddd81613da4565b9050919050565b7f4552433732313a207472616e7366657220746f20746865207a65726f206164645f8201527f7265737300000000000000000000000000000000000000000000000000000000602082015250565b5f613e3e602483612aba565b9150613e4982613de4565b604082019050919050565b5f6020820190508181035f830152613e6b81613e32565b9050919050565b7f4552433732313a20617070726f766520746f2063616c6c6572000000000000005f82015250565b5f613ea6601983612aba565b9150613eb182613e72565b602082019050919050565b5f6020820190508181035f830152613ed381613e9a565b9050919050565b7f4552433732313a207472616e7366657220746f206e6f6e2045524337323152655f8201527f63656976657220696d706c656d656e7465720000000000000000000000000000602082015250565b5f613f34603283612aba565b9150613f3f82613eda565b604082019050919050565b5f6020820190508181035f830152613f6181613f28565b9050919050565b7f4e487b71000000000000000000000000000000000000000000000000000000005f52601260045260245ffd5b7f416363657373436f6e74726f6c3a206163636f756e74200000000000000000005f82015250565b5f613fc9601783613c22565b9150613fd482613f95565b601782019050919050565b7f206973206d697373696e6720726f6c65200000000000000000000000000000005f82015250565b5f614013601183613c22565b915061401e82613fdf565b601182019050919050565b5f61403382613fbd565b915061403f8285613c2c565b915061404a82614007565b91506140568284613c2c565b91508190509392505050565b5f6080820190506140755f830187612bce565b6140826020830186612bce565b61408f6040830185612e5b565b81810360608301526140a1818461322e565b905095945050505050565b5f815190506140ba81612a28565b92915050565b5f602082840312156140d5576140d46129f5565b5b5f6140e2848285016140ac565b91505092915050565b5f6140f582612b40565b915061410083612b40565b925082820261410e81612b40565b915082820484148315176141255761412461376c565b5b5092915050565b7f4e487b71000000000000000000000000000000000000000000000000000000005f52603260045260245ffd5b5f61416382612b40565b91505f82036141755761417461376c565b5b600182039050919050565b7f537472696e67733a20686578206c656e67746820696e73756666696369656e745f82015250565b5f6141b4602083612aba565b91506141bf82614180565b602082019050919050565b5f6020820190508181035f8301526141e1816141a8565b9050919050565b7f4552433732313a206d696e7420746f20746865207a65726f20616464726573735f82015250565b5f61421c602083612aba565b9150614227826141e8565b602082019050919050565b5f6020820190508181035f83015261424981614210565b9050919050565b7f4552433732313a20746f6b656e20616c7265616479206d696e746564000000005f82015250565b5f614284601c83612aba565b915061428f82614250565b602082019050919050565b5f6020820190508181035f8301526142b181614278565b905091905056fea2646970667358221220424ea9b564a4842ca9b0f4c75aca3524e00192c54593b6c11027046798b7edb464736f6c634300081e0033","linkReferences":{}},"methodIdentifiers":{"DEFAULT_ADMIN_ROLE()":"a217fddf","MINTER_ROLE()":"d5391393","REENCRYPTOR_ROLE()":"c919bc00","adminUpdateIPFSCID(uint256,string)":"f94dd568","approve(address,uint256)":"095ea7b3","balanceOf(address)":"70a08231","getApproved(uint256)":"081812fc","getIPFSCID(uint256)":"a265690c","getKeyVersion(uint256)":"df98116c","getRoleAdmin(bytes32)":"248a9ca3","getWrappedKey(uint256)":"fe7992c2","grantMinter(address)":"261707fa","grantReencryptor(address)":"70f6aeb7","grantRole(bytes32,address)":"2f2ff15d","hasRole(bytes32,address)":"91d14854","isApprovedForAll(address,address)":"e985e9c5","mintEncrypted(address,string,bytes)":"bec3346b","name()":"06fdde03","ownerOf(uint256)":"6352211e","renounceRole(bytes32,address)":"36568abe","revokeRole(bytes32,address)":"d547741f","safeTransferFrom(address,address,uint256)":"42842e0e","safeTransferFrom(address,address,uint256,bytes)":"b88d4fde","setApprovalForAll(address,bool)":"a22cb465","supportsInterface(bytes4)":"01ffc9a7","symbol()":"95d89b41","tokenURI(uint256)":"c87b56dd","transferFrom(address,address,uint256)":"23b872dd","updateWrappedKey(uint256,bytes)":"3516eec4"},"id":33}